:100000000C942B010C945C010C945C010C945C012D
:100010000C945C010C945C010C945C010C945C01EC
:100020000C945C010C945C010C945C010C945C01DC
:100030000C945C010C945C010C945C010C945C01CC
:100040000C945C010C945C010C945C010C945C01BC
:100050000C945C010C945C010C945C010C94B60350
:100060000C945C010C942A040C9400040C945C0124
:100070000C945C010C945C010C945C010C945C018C
:100080000C945C010C945C010C945C010C945C017C
:100090000C945C010C945C010C945C010C945C016C
:1000A0000C945C010C945C010C945C010C945C015C
:1000B0000C945C010C945C010C945C010C945C014C
:1000C0000C945C010C945C010C945C010C945C013C
:1000D0000C945C010C945C010C945C010C945C012C
:1000E0000C945C010C94B0010C94C0010C94A90117
:1000F0000C948F010C94C8010C94A5010C9460041D
:100100000C94C4010C94BA010C9447020C948A011B
:100110000C94D6010C94DC010C94AD010C94D2012A
:100120000C9469020C9438020C94A1010C945B02AB
:100130000C94EE020C94E0010C940B020C94A102BE
:100140000C9452060C94CE010C94B60100002100D0
:10015000240027002A002D00300033000101000098
:10016000040107010A0100002200250028002B00DD
:100170002E003100340002010000050108010B01CE
:1001800005050505070508080808020202020A0A13
:100190000808040404040101010101010101030331
:1001A000030303030303040707070C0C0C0C0C0CDC
:1001B0000C0C0202020206060606060606060B0BD9
:1001C0000B0B0B0B0B0B010210202008081020401A
:1001D000102040800201020108040201010204080B
:1001E0001020408080402010080402018004020199
:1001F00080402010080402010804020101020408E2
:1002000010204080010204081020408000000A0BEA
:1002100002090C0D0E080703040100000000000095
:1002200000000000000000000000000000000000CE
:10023000000000000000000012111000000000008B
:1002400000000000000000000000000000000000AE
:1002500000006004520611241FBECFEFD1E2DEBFC2
:10026000CDBF00E00CBF23E0A8EAB2E001C01D92C0
:10027000AA35B207E1F712E0A0E0B2E0E0E4F1E174
:1002800000E00BBF02C007900D92A83AB107D9F762
:1002900011E0CAE2D1E000E006C021970109802FF9
:1002A000FE010E946706C932D10780E00807A9F75E
:1002B0000E9498040C948E080C940000382FE6E1FC
:1002C000F2E08491E0EDF1E02491EAE8F1E094912C
:1002D000992309F435C0882311F181508231F8F453
:1002E000E82FF0E08827E858FE4F8F4F0C94670600
:1002F000A901AD018A01A101A5018F01B001B601DB
:10030000BA01C001C401C801CE01D2018F01D601DA
:10031000DC01E001809180008F7780938000E92FDD
:10032000F0E0EE0FFF1FEA59FE4FA591B4918FB791
:10033000F894EC91311148C020952E232C938FBF57
:100340000895809180008F7DE8CF80918000877F25
:10035000E4CF84B58F7784BDE2CF84B58F7DFBCFAA
:100360008091B0008F778093B000D9CF8091B0009A
:100370008F7DF9CF809190008F7780939000CFCFC1
:10038000809190008F7DF9CF80919000877FF5CF8D
:100390008091A0008F778093A000C1CF8091A000B2
:1003A0008F7DF9CF8091A000877FF5CF80912001CC
:1003B0008F7780932001B3CF809120018F7DF9CF7B
:1003C00080912001877FF5CF2E2BB8CF3FB7F894CF
:1003D0008091AF029091B002A091B102B091B202AF
:1003E00026B5A89B05C02F3F19F00196A11DB11D90
:1003F0003FBFBA2FA92F982F8827BC01CD01620FCC
:10040000711D811D911D42E0660F771F881F991F86
:100410004A95D1F70895AF92BF92CF92DF92EF92B3
:10042000FF920F931F93CF93DF936C017B018B019E
:10043000040F151FEB015E01AE18BF08C017D107EE
:1004400059F06991D601ED91FC910190F081E02D78
:10045000C6011995892B79F7C501DF91CF911F91BD
:100460000F91FF90EF90DF90CF90BF90AF900895E5
:10047000FC01538D448D252F30E0842F90E0821BAA
:10048000930B541710F0CF96089501970895FC012F
:10049000918D828D981761F0A28DAE0FBF2FB11D87
:1004A0005D968C91928D9F5F9F73928F90E00895DF
:1004B0008FEF9FEF0895FC01918D828D981731F099
:1004C000828DE80FF11D858D90E008958FEF9FEFED
:1004D0000895FC01918D228D892F90E0805C9F4FC3
:1004E000821B91098F739927089583EB92E00E94F4
:1004F000690221E0892B09F420E0822F0895FC0194
:10050000A48DA80FB92FB11DA35ABF4F2C91848D74
:1005100090E001968F739927848FA689B7892C93D1
:10052000A089B1898C91837080648C93938D848D24
:10053000981306C00288F389E02D80818F7D808327
:100540000895EF92FF920F931F93CF93DF93EC01E7
:1005500081E0888F9B8D8C8D98131AC0E889F9896A
:10056000808185FF15C09FB7F894EE89FF8960836D
:10057000E889F98980818370806480839FBF81E0EE
:1005800090E0DF91CF911F910F91FF90EF90089530
:10059000F62E0B8D10E00F5F1F4F0F731127E02E0B
:1005A0008C8D8E110CC00FB607FCFACFE889F98943
:1005B000808185FFF5CFCE010E947F02F1CFEB8DC8
:1005C000EC0FFD2FF11DE35AFF4FF0829FB7F89417
:1005D0000B8FEA89FB8980818062CFCFCF93DF9335
:1005E000EC01888D8823B9F0AA89BB89E889F9894B
:1005F0008C9185FD03C0808186FD0DC00FB607FC80
:10060000F7CF8C9185FFF2CF808185FFEDCFCE01B2
:100610000E947F02E9CFDF91CF91089580E090E0C2
:10062000892B29F00E94750281110E94000080E050
:1006300090E0892B49F080E090E0892B29F00E941E
:10064000000081110E94000080E090E0892B49F0B9
:1006500080E090E0892B29F00E94000081110E9427
:10066000000080E090E0892B49F080E090E0892B49
:1006700029F00E94000081110C9400000895CF938E
:10068000DF93FC0101900020E9F73197AF01481B8F
:10069000590BBC0183EB92E00E940B02EC0142E09B
:1006A00050E068E172E083EB92E00E940B028C0F55
:1006B0009D1FDF91CF910895CF93DF93EC0180913F
:1006C000500390915103009759F0209152033091BB
:1006D00053032C173D0720F081E0DF91CF9108955F
:1006E000BE016F5F7F4F0E949407009789F090933F
:1006F000510380935003D0935303C093520320912E
:10070000540330915503232B39F7FC011082E4CFB9
:1007100080E0E3CFCF93DF93EC010E945C03209154
:10072000500330915103811117C02115310519F083
:10073000C9010E940B0710925103109250031092AE
:10074000550310925403109253031092520380E504
:1007500093E0DF91CF910895D0935503C093540354
:100760006AE172E0C9010E948708F1CF1F920F92DF
:100770000FB60F9211242F933F938F939F93AF93B4
:10078000BF938091AB029091AC02A091AD02B09169
:10079000AE023091AA0223E0230F2D3758F50196BF
:1007A000A11DB11D2093AA028093AB029093AC02CD
:1007B000A093AD02B093AE028091AF029091B002CF
:1007C000A091B102B091B2020196A11DB11D80931A
:1007D000AF029093B002A093B102B093B202BF9166
:1007E000AF919F918F913F912F910F900FBE0F90DE
:1007F0001F90189526E8230F0296A11DB11DD2CF98
:100800001F920F920FB60F9211240BB60F922F93D7
:100810003F934F935F936F937F938F939F93AF9388
:10082000BF93EF93FF9383EB92E00E947F02FF91CF
:10083000EF91BF91AF919F918F917F916F915F9158
:100840004F913F912F910F900BBE0F900FBE0F90C5
:100850001F9018951F920F920FB60F9211240BB68E
:100860000F922F938F939F93EF93FF93E091C30287
:10087000F091C4028081E091C902F091CA0282FD28
:100880001DC090818091CC028F5F8F732091CD022B
:10089000821741F0E091CC02F0E0ED54FD4F958FCE
:1008A0008093CC02FF91EF919F918F912F910F90A8
:1008B0000BBE0F900FBE0F901F9018958081F2CF46
:1008C000E3EBF2E01382128288EE93E0A0E0B0E066
:1008D00084839583A683B7838AE092E091838083A3
:1008E00085EC90E09587848784EC90E097878687F5
:1008F00080EC90E0918B808B81EC90E0938B828BED
:1009000082EC90E0958B848B86EC90E0978B868BC5
:10091000118E128E138E148EE0E5F3E01182108298
:10092000138212821582148290E080E00C948A0374
:10093000CF93DF931F921F92CDB7DEB7789484B523
:10094000826084BD84B5816084BD85B5826085BDCB
:1009500085B5816085BD80916E00816080936E0059
:10096000109281008091810082608093810080914B
:1009700081008160809381008091800081608093FC
:1009800080008091B10084608093B1008091B000BC
:1009900081608093B000809191008260809391008B
:1009A000809191008160809391008091900081609E
:1009B000809390008091A10082608093A10080913B
:1009C000A10081608093A1008091A000816080934C
:1009D000A0008091210182608093210180912101FA
:1009E00081608093210180912001816080932001AA
:1009F00080917A00846080937A0080917A0082608E
:100A000080937A0080917A00816080937A0080914F
:100A10007A00806880937A001092C100E0EDF1E0E6
:100A20002491EAE8F1E08491882399F090E0880F1E
:100A3000991FFC01E45BFE4FA591B491FC01EA59BA
:100A4000FE4F859194918FB7F894EC91E22BEC9343
:100A50008FBFE091C302F091C40282E08083E091F5
:100A6000BF02F091C0021082E091C102F091C20277
:100A70008FEC80831092CB02E091C702F091C80204
:100A800086E08083E091C502F091C602808180619A
:100A90008083E091C502F091C602808188608083E6
:100AA000E091C502F091C602808180688083E09168
:100AB000C502F091C60280818F7D8083AA24A39411
:100AC000B12C8091A8029091A902009761F0019742
:100AD00009F4AAC08CE892E00E943F031092A90298
:100AE0001092A8020FC08BE192E00E943F0380E0C9
:100AF0000E945E0190E080E00E948A03B092A90209
:100B0000A092A8020E94E6012B013C0184E6C82EB7
:100B1000D12CE12CF12C0E94E6016419750986099B
:100B20009709683E734081059105A8F3F1E0CF1A5B
:100B3000D108E108F10828EE420E23E0521E611CA4
:100B4000711CC114D104E104F10429F70E940E03C1
:100B5000B8CF730137012FEF621A720AF701808153
:100B6000082E000C990B0E945B06892B91F701500F
:100B700011090C0D1D1DF8018081082E000C990B28
:100B80000E945B06892B31F00E151F0518F00150ED
:100B90001109F1CFA8014F5F5F4F4E195F095093C4
:100BA000550340935403CE14DF0420F4B701C6016B
:100BB0000E947508E0915003F09151038091540315
:100BC00090915503E80FF91F10824DC06DE472E05B
:100BD000C8010E947E08892B31F487E592E00E94CB
:100BE0003F0380E058C083E792E00E943F0355C076
:100BF00089831A820F5F1F4FC8010E945C038823FC
:100C000099F02091500330915103809154039091B9
:100C10005503BE016F5F7F4F820F931F0E948708AD
:100C2000109355030093540383EB92E00E946902F2
:100C3000892B09F467CF83EB92E00E944702009171
:100C40005403109155038A3011F08D3089F6C0900D
:100C50005003D0905103C114D10429F0760101153D
:100C6000110509F077CF8091540390915503892B9A
:100C700009F4B9CF009150031091510369E272E079
:100C8000C8010E947E08892B09F0A0CF82E392E080
:100C90000E943F0381E00E945E0190E080E00E949C
:100CA0008A03C2CF8091500390915103009711F0B5
:100CB0000C940B07089591110C946406803219F07E
:100CC00089508550C8F70895992788270895EE0F11
:100CD000FF1F881F8BBF0790F691E02D19940F938B
:100CE0001F93CF93DF938230910510F482E090E060
:100CF000E0915803F091590330E020E0B0E0A0E02B
:100D0000309799F42115310509F44AC0281B390B95
:100D100024303105D8F58A819B816115710589F1EF
:100D2000FB0193838283FE0111C0408151810281C6
:100D3000138148175907E0F04817590799F410979D
:100D400061F012960C93129713961C933296CF0172
:100D5000DF91CF911F910F91089500935803109345
:100D60005903F4CF2115310551F04217530738F0DC
:100D7000A901DB019A01BD01DF01F801C1CFEF013B
:100D8000F9CF9093590380935803CDCFFE01E20F22
:100D9000F31F819391932250310939832883D7CF50
:100DA0002091560330915703232B41F420910202E6
:100DB0003091030230935703209356032091000291
:100DC000309101022115310541F42DB73EB7409114
:100DD000040250910502241B350BE0915603F0915B
:100DE0005703E217F307A0F42E1B3F0B2817390710
:100DF00078F0AC014E5F5F4F2417350748F04E0F77
:100E00005F1F5093570340935603819391939FCF55
:100E1000F0E0E0E09CCFCF93DF930097E9F0FC0196
:100E2000329713821282A0915803B0915903ED01B9
:100E300030E020E01097A1F420813181820F931FD0
:100E400020915603309157032817390709F061C0E4
:100E5000F0935703E0935603DF91CF910895EA0191
:100E6000CE17DF07E8F54A815B819E0141155105E8
:100E7000B1F7E901FB83EA8349915991C40FD51F6A
:100E8000EC17FD0761F4808191810296840F951F14
:100E9000E90199838883828193819B838A83F0E02F
:100EA000E0E012968D919C9113970097B9F52D91E2
:100EB0003C911197CD010296820F931F209156030A
:100EC000309157032817390739F6309751F51092AA
:100ED000590310925803B0935703A0935603BCCF05
:100EE000D383C28340815181840F951FC817D907CE
:100EF00061F44E5F5F4F88819981480F591F51837C
:100F000040838A819B81938382832115310509F077
:100F1000B0CFF0935903E09358039ECFFD01DC015D
:100F2000C0CF13821282D7CF4F925F926F927F927F
:100F30008F929F92AF92BF92CF92DF92EF92FF92E9
:100F40000F931F93CF93DF938C01009799F4CB01FC
:100F5000DF91CF911F910F91FF90EF90DF90CF9095
:100F6000BF90AF909F908F907F906F905F904F90C9
:100F70000C946F06FC01E60FF71F9C01225031090B
:100F8000E217F30708F4AEC0D901CD91DC911197B7
:100F9000C617D70720F1C530D10578F0CE010497E8
:100FA0008617970750F0C61BD70B2297C193D19392
:100FB0006D937C93CF010E940B07C801DF91CF9105
:100FC0001F910F91FF90EF90DF90CF90BF90AF9067
:100FD0009F908F907F906F905F904F9008955B01EE
:100FE000AC1ABD0A4C018C0E9D1EA0915803B09105
:100FF0005903512C412CF12CE12C109731F58091A3
:101000005603909157038815990509F05CC0461660
:10101000570608F058C08091000290910102009795
:1010200041F48DB79EB74091040250910502841B94
:10103000950BE817F90708F055C0F0935703E093B4
:101040005603F90171836083B8CF8D919C911197FC
:1010500012966C90129713967C901397A815B90569
:1010600059F56C0142E0C40ED11CCA14DB0420F116
:10107000AC014A195B09DA011296159780F0628279
:10108000738251834083D9016D937C93E114F10401
:1010900071F0D7011396FC93EE9312978ECF2296A0
:1010A0008C0F9D1FF90191838083F301EFCFF093A3
:1010B0005903E093580381CF4816590608F42C01D0
:1010C0007D01D3019ACFCB010E946F067C0100976E
:1010D00049F0AE01B8010E947508C8010E940B07D3
:1010E00087016BCF10E000E068CFFB01DC0102C09C
:1010F00001900D9241505040D8F70895FB01DC015A
:101100008D91019080190110D9F3990B0895FB017D
:10111000DC0101900D920020E1F7089511E0CAE290
:10112000D1E000E006C0802FFE010E9467062196F4
:10113000011DCB32D10780E00807A9F7F894FFCF53
:1011400000005A03800000000000A1020B023802D8
:10115000EE02690247025B020D0A00696E6974695A
:10116000616C697A656421210072656C61795F6FD9
:101170006E00436F6D6D616E6420726563656976A4
:1011800065643A2072656C6179206F6E0072656CDF
:1011900061795F6F666600436F6D6D616E6420728A
:1011A000656365697665643A2072656C6179206F64
:1011B000666600556E6B6E6F776E20636F6D6D6146
:1011C0006E6420726563656976656400556E6B6E4A
:1011D0006F776E2073746174652C2072657365740B
:0811E00074696E672E2E2E00CB
:00000001FF
