:100000000C942B010C945C010C945C010C945C012D
:100010000C945C010C945C010C945C010C945C01EC
:100020000C945C010C945C010C945C010C945C01DC
:100030000C945C010C945C010C945C010C945C01CC
:100040000C945C010C945C010C945C010C945C01BC
:100050000C945C010C945C010C945C010C941704EE
:100060000C945C010C948B040C9461040C945C0162
:100070000C945C010C945C010C945C010C945C018C
:100080000C945C010C945C010C945C010C945C017C
:100090000C945C010C945C010C945C010C945C016C
:1000A0000C945C010C945C010C945C010C945C015C
:1000B0000C945C010C945C010C945C010C945C014C
:1000C0000C945C010C945C010C945C010C945C013C
:1000D0000C945C010C945C010C945C010C945C012C
:1000E0000C945C010C949D020C94F9010C94AD01EC
:1000F0000C94C8010C94D5020C9422030C94C104F6
:100100000C94EB010C94E3010C943F020C94CC0191
:100110000C948F020C94B2010C946C020C94F101BB
:100120000C94E7010C94D0010C9403020C94C401CC
:100130000C94D9010C94FF010C94BA070C94D301D0
:100140000C94DD010C947B020C94F50100000A0B69
:1001500002090C0D0E080703040100000000000056
:10016000000000000000000000000000000000008F
:10017000000000000000000012111000000000004C
:10018000000000000000000000000000000000006F
:10019000000000002200250028002B002E00310066
:1001A000340002010000050108010B0100002100DC
:1001B000240027002A002D00300033000101000038
:1001C000040107010A0105050505070508080808D7
:1001D000020202020A0A08080404040401010101DF
:1001E00001010101030303030303030304070707DA
:1001F0000C0C0C0C0C0C0C0C02020202060606067F
:10020000060606060B0B0B0B0B0B0B0B010210204B
:10021000200808102040102040800201020108043C
:1002200002010102040810204080804020100804D0
:100230000201800402018040201008040201080429
:10024000020101020408102040800102040810206D
:100250004080C104BA0711241FBECFEFD1E2DEBF38
:10026000CDBF00E00CBF23E0A2EDB2E001C01D92C3
:10027000A438B207E1F712E0A0E0B2E0E2E2F4E174
:1002800000E00BBF02C007900D92A23DB107D9F765
:1002900011E0CAE2D1E000E006C021970109802FF9
:1002A000FE010E94CA07C932D10780E00807A9F7FA
:1002B0000E94FA040C94FF090C94000090E0FC01E9
:1002C000E45FFD4F24918A539E4FFC018491882363
:1002D00099F090E0880F991FFC01E455FE4FA5911D
:1002E000B491FC01EE56FE4F859194918FB7F8942E
:1002F000EC91E22BEC938FBF0895282F30E0F901A9
:10030000E45BFE4F9491F901E45FFD4F44912A5361
:100310003E4FF9012491222309F435C0992311F1AC
:1003200091509231F8F4E92FF0E08827E556FE4F1E
:100330008F4F0C94CA07CC01D001AD01C401C80194
:10034000B201D301D901DD01E301E701EB01F101C4
:10035000F501B201F901FF010302809180008F775E
:1003600080938000E22FF0E0EE0FFF1FEE56FE4F6D
:10037000A591B4918FB7F894EC91611148C0409564
:100380004E234C938FBF0895809180008F7DE8CFDE
:1003900080918000877FE4CF84B58F7784BDE2CFE2
:1003A00084B58F7DFBCF8091B0008F778093B000B4
:1003B000D9CF8091B0008F7DF9CF809190008F7759
:1003C00080939000CFCF809190008F7DF9CF809166
:1003D0009000877FF5CF8091A0008F778093A00059
:1003E000C1CF8091A0008F7DF9CF8091A000877F41
:1003F000F5CF809120018F7780932001B3CF80913A
:1004000020018F7DF9CF80912001877FF5CF4E2B82
:10041000B8CF3FB7F8948091D9029091DA02A091B9
:10042000DB02B091DC0226B5A89B05C02F3F19F076
:100430000196A11DB11D3FBFBA2FA92F982F882764
:10044000BC01CD01620F711D811D911D42E0660F3F
:10045000771F881F991F4A95D1F70895FC012481C1
:1004600035816217730748F480819181009729F0E4
:10047000860F971FFC018081089580E00895AF9258
:10048000BF92CF92DF92EF92FF920F931F93CF9381
:10049000DF936C017B018B01040F151FEB015E01E3
:1004A000AE18BF08C017D10759F06991D601ED9178
:1004B000FC910190F081E02DC6011995892B79F707
:1004C000C501DF91CF911F910F91FF90EF90DF90C9
:1004D000CF90BF90AF900895FC01538D448D252F90
:1004E00030E0842F90E0821B930B541710F0CF96CE
:1004F000089501970895FC01918D828D981761F000
:10050000A28DAE0FBF2FB11D5D968C91928D9F5F16
:100510009F73928F90E008958FEF9FEF0895FC01F5
:10052000918D828D981731F0828DE80FF11D858DA8
:1005300090E008958FEF9FEF0895FC01918D228D3B
:10054000892F90E0805C9F4F821B91098F739927C0
:1005500008958DED92E00E949D0221E0892B09F41F
:1005600020E0822F0895FC01A48DA80FB92FB11DA2
:10057000A35ABF4F2C91848D90E001968F739927D9
:10058000848FA689B7892C93A089B1898C918370B7
:1005900080648C93938D848D981306C00288F389B0
:1005A000E02D80818F7D80830895EF92FF920F93DD
:1005B0001F93CF93DF93EC0181E0888F9B8D8C8D0F
:1005C00098131AC0E889F989808185FF15C09FB703
:1005D000F894EE89FF896083E889F98980818370C6
:1005E000806480839FBF81E090E0DF91CF911F9175
:1005F0000F91FF90EF900895F62E0B8D10E00F5F96
:100600001F4F0F731127E02E8C8D8E110CC00FB66B
:1006100007FCFACFE889F989808185FFF5CFCE0103
:100620000E94B302F1CFEB8DEC0FFD2FF11DE35AC9
:10063000FF4FF0829FB7F8940B8FEA89FB89808186
:100640008062CFCFCF93DF93EC01888D8823B9F000
:10065000AA89BB89E889F9898C9185FD03C08081CD
:1006600086FD0DC00FB607FCF7CF8C9185FFF2CF4A
:10067000808185FFEDCFCE010E94B302E9CFDF91EB
:10068000CF91089580E090E0892B29F00E94A90283
:1006900081110E94000080E090E0892B49F080E009
:1006A00090E0892B29F00E94000081110E94000037
:1006B00080E090E0892B49F080E090E0892B29F0E0
:1006C0000E94000081110E94000080E090E0892BD0
:1006D00049F080E090E0892B29F00E940000811110
:1006E0000C940000089542E050E06CE272E08DED61
:1006F00092E00C943F02CF93DF93FC010190002025
:10070000E9F73197AF01481B590BBC018DED92E021
:100710000E943F02EC010E9473038C0F9D1FDF912A
:10072000CF910895FC0124813581FB0144815581DD
:1007300024173507A0F0FC0180819181009779F0A2
:10074000FB01608171816115710549F0241B350B36
:10075000820F931F0E94E10921E0892B09F020E01C
:10076000822F0895FC0180819181009711F00C94F3
:100770006E0808950F931F93CF93DF93EC01888148
:100780009981009759F02A813B812617370730F06D
:1007900081E0DF91CF911F910F9108958B016F5FE1
:1007A0007F4F0E94F708009759F0998388831B8335
:1007B0000A832C813D81232B59F7FC011082E8CF5D
:1007C00080E0E7CFEF92FF920F931F93CF93DF93D9
:1007D000EC017B018A01BA010E94BA0328813981A8
:1007E000811114C02115310519F0C9010E946E084C
:1007F000198218821D821C821B821A82CE01DF910F
:10080000CF911F910F91FF90EF9008951D830C835E
:10081000B701C9010E94EA09F1CFFB010190002054
:10082000E9F73197AF01461B570B0C94E2031F9277
:100830000F920FB60F9211242F933F938F939F9394
:10084000AF93BF938091D5029091D602A091D70229
:10085000B091D8023091D40223E0230F2D3758F500
:100860000196A11DB11D2093D4028093D5029093CF
:10087000D602A093D702B093D8028091D90290916A
:10088000DA02A091DB02B091DC020196A11DB11D3C
:100890008093D9029093DA02A093DB02B093DC023A
:1008A000BF91AF919F918F913F912F910F900FBE6C
:1008B0000F901F90189526E8230F0296A11DB11DD9
:1008C000D2CF1F920F920FB60F9211240BB60F9238
:1008D0002F933F934F935F936F937F938F939F9348
:1008E000AF93BF93EF93FF938DED92E00E94B3021D
:1008F000FF91EF91BF91AF919F918F917F916F91F8
:100900005F914F913F912F910F900BBE0F900FBEB3
:100910000F901F9018951F920F920FB60F921124EF
:100920000BB60F922F938F939F93EF93FF93E091CA
:10093000ED02F091EE028081E091F302F091F40279
:1009400082FD1DC090818091F6028F5F8F73209190
:10095000F702821741F0E091F602F0E0E352FD4F1A
:10096000958F8093F602FF91EF919F918F912F9138
:100970000F900BBE0F900FBE0F901F9018958081A7
:10098000F2CFEDEDF2E01382128288EE93E0A0E068
:10099000B0E084839583A683B7838EE192E0918350
:1009A000808385EC90E09587848784EC90E097873E
:1009B000868780EC90E0918B808B81EC90E0938B2C
:1009C000828B82EC90E0958B848B86EC90E0978B09
:1009D000868B118E128E138E148EEAE7F3E011824D
:1009E000108213821282158214826EE272E0CF01AD
:1009F0000C940D04CF93DF93CDB7DEB72C970FB6D1
:100A0000F894DEBF0FBECDBF789484B5826084BDFC
:100A100084B5816084BD85B5826085BD85B5816002
:100A200085BD80916E00816080936E001092810080
:100A3000809181008260809381008091810081603B
:100A400080938100809180008160809380008091FC
:100A5000B10084608093B1008091B0008160809388
:100A6000B00080919100826080939100809191000C
:100A700081608093910080919000816080939000CC
:100A80008091A10082608093A1008091A10081608B
:100A90008093A1008091A00081608093A00080914C
:100AA00021018260809321018091210181608093E6
:100AB00021018091200181608093200180917A0042
:100AC000846080937A0080917A00826080937A00BB
:100AD00080917A00816080937A0080917A008068AA
:100AE00080937A001092C1008AE00E945E0106E0C5
:100AF00012E04AE1E42E42E0F42EF80180810E94E7
:100B00005E01F801828193818F3F980711F00E9466
:100B10005E010C5F1F4FE016F10679F7E091ED02E0
:100B2000F091EE0282E08083E091E902F091EA0226
:100B30001082E091EB02F091EC028FEC8083109236
:100B4000F502E091F102F091F20286E08083E091FB
:100B5000EF02F091F002808180618083E091EF02EA
:100B6000F091F002808188608083E091EF02F09143
:100B7000F002808180688083E091EF02F091F002C2
:100B800080818F7D8083AA24A394B12C8091D2028E
:100B90009091D302009761F0019709F454C185EB5D
:100BA00092E00E947B031092D3021092D20210C0F6
:100BB0008FE292E00E947B0350E040E06EE272E040
:100BC0008AE793E00E94E203B092D302A092D2029D
:100BD0000E9409026B017C0184E6482E512C612C95
:100BE000712C0E9409026C197D098E099F09683ECB
:100BF000734081059105A8F321E0421A510861086C
:100C0000710888EEC80E83E0D81EE11CF11C411467
:100C100051046104710429F70E944203B7CF7301A4
:100C200037012FEF621A720AF7018081082E000C3B
:100C3000990B0E94BE07892B91F7015011090C0DE9
:100C40001D1DF8018081082E000C990B0E94BE0723
:100C5000892B31F00E151F0518F001501109F1CF45
:100C6000A8014F5F5F4F4E195F095C874B87CE1419
:100C7000DF0420F4B701C6010E94D809EF81F8858E
:100C80008B859C85E80FF91F108210C189819A819C
:100C9000009711F00E946E081A8219821E821D822E
:100CA0001C821B8231C11A8219821C821B821E8205
:100CB0001D8262E672E0CE0101960E940D044D8114
:100CC0005E818B859C858417950770F08F81988550
:100CD000009751F069817A816115710529F00E94B0
:100CE000F10911E0892B09F010E0CE0101960E9474
:100CF000B203112309F471C065E070E0CE010796DC
:100D00000E942E02082F880F110B0153110988E64B
:100D100092E00530110508F05DC08B859C85F12CB3
:100D2000E12C079768F066E070E0CE0107960E941C
:100D30002E0221E090E0823409F020E0E22EF92E2C
:100D40001A8219821C821B821E821D8264E572E057
:100D5000CE0101960E940D04BE016F5F7F4FCE0150
:100D600007960E949203D82ECE0101960E94B203EC
:100D70001A8219821C821B821E821D826DE572E01E
:100D8000CE0101960E940D04BE016F5F7F4FCE0120
:100D900007960E949203C82ECE0101960E94B203CC
:100DA000D11002C0CC20A1F0F801EE0FFF1FEE0D14
:100DB000FF1DEE0FFF1FEA5FFD4F808191818F3F86
:100DC000980709F4CAC061E0D110C5C060E0C3C093
:100DD0008EE792E00E947B03C0C08B859C85892BA7
:100DE00069F065E972E08F8198850E94E109892B9D
:100DF00029F41092D3021092D202AFC08BE992E094
:100E0000E9CF00917E0310917F0389831A820F5FDF
:100E10001F4FB8018AE793E00E94BA03882399F034
:100E200020917A0330917B0380917E0390917F0320
:100E3000BE016F5F7F4F820F931F0E94EA091093DC
:100E40007F0300937E038DED92E00E949D02892B2B
:100E500009F4BECE8DED92E00E947B028A3011F043
:100E60008D3079F640917E0350917F0341155105F5
:100E700051F318861F821A8619861C861B8660917C
:100E80007A0370917B036115710521F0CE010796FD
:100E90000E94E203CF80D884C114D10439F00B85BD
:100EA0001C8576010115110509F0BACE1A82198246
:100EB0001C821B821E821D826DE372E0CE010196B0
:100EC0000E940D04EF80F884E114F10409F4DECEF1
:100ED0000B851C8501151105B9F08D819E81080FC8
:100EE000191FB801CE0101960E94BA03882309F4A4
:100EF000CDCE29813A818D819E81B701820F931FCA
:100F00000E94EA091E830D834D815E8169817A8189
:100F10008DED92E00E943F020E947303CE01019684
:100F20000E94B2038B859C85892B09F4BCCE0F816E
:100F300018856FE472E0C8010E94E10961E0892B25
:100F400049F068E572E0C8010E94E109892B09F0C7
:100F5000AACE60E08AE00E947D01CE0107960E9441
:100F6000B20350E040E06EE272E08AE793E00E9454
:100F7000E20369CF8AE793E00C94B20391110C94D9
:100F8000C707803219F089508550C8F7089599270E
:100F900088270895EE0FFF1F881F8BBF0790F691DB
:100FA000E02D19940F931F93CF93DF938230910517
:100FB00010F482E090E0E0918203F091830330E04E
:100FC00020E0B0E0A0E0309799F42115310509F454
:100FD0004AC0281B390B24303105D8F58A819B8102
:100FE0006115710589F1FB0193838283FE0111C0B4
:100FF000408151810281138148175907E0F0481759
:10100000590799F4109761F012960C931297139662
:101010001C933296CF01DF91CF911F910F910895CC
:101020000093820310938303F4CF2115310551F00F
:101030004217530738F0A901DB019A01BD01DF0116
:10104000F801C1CFEF01F9CF90938303809382031E
:10105000CDCFFE01E20FF31F81939193225031090E
:1010600039832883D7CF2091800330918103232BAC
:1010700041F42091020230910302309381032093C6
:10108000800320910002309101022115310541F4C5
:101090002DB73EB74091040250910502241B350B39
:1010A000E0918003F0918103E217F307A0F42E1B77
:1010B0003F0B2817390778F0AC014E5F5F4F2417BC
:1010C000350748F04E0F5F1F509381034093800314
:1010D000819391939FCFF0E0E0E09CCFCF93DF939B
:1010E0000097E9F0FC01329713821282A0918203EB
:1010F000B0918303ED0130E020E01097A1F420814E
:101100003181820F931F2091800330918103281732
:10111000390709F061C0F0938103E0938003DF9108
:10112000CF910895EA01CE17DF07E8F54A815B8188
:101130009E0141155105B1F7E901FB83EA8349910D
:101140005991C40FD51FEC17FD0761F4808191817F
:101150000296840F951FE901998388838281938188
:101160009B838A83F0E0E0E012968D919C91139727
:101170000097B9F52D913C911197CD010296820F00
:10118000931F20918003309181032817390739F686
:10119000309751F51092830310928203B09381032C
:1011A000A0938003BCCFD383C28340815181840F3D
:1011B000951FC817D90761F44E5F5F4F88819981E9
:1011C000480F591F518340838A819B819383828377
:1011D0002115310509F0B0CFF0938303E09382032A
:1011E0009ECFFD01DC01C0CF13821282D7CF4F9278
:1011F0005F926F927F928F929F92AF92BF92CF92A7
:10120000DF92EF92FF920F931F93CF93DF938C01A6
:10121000009799F4CB01DF91CF911F910F91FF902F
:10122000EF90DF90CF90BF90AF909F908F907F9086
:101230006F905F904F900C94D207FC01E60FF71F60
:101240009C0122503109E217F30708F4AEC0D9011E
:10125000CD91DC911197C617D70720F1C530D10584
:1012600078F0CE0104978617970750F0C61BD70B6E
:101270002297C193D1936D937C93CF010E946E0806
:10128000C801DF91CF911F910F91FF90EF90DF90F8
:10129000CF90BF90AF909F908F907F906F905F9016
:1012A0004F9008955B01AC1ABD0A4C018C0E9D1E37
:1012B000A0918203B0918303512C412CF12CE12C9D
:1012C000109731F5809180039091810388159905DD
:1012D00009F05CC04616570608F058C0809100021D
:1012E00090910102009741F48DB79EB7409104029E
:1012F00050910502841B950BE817F90708F055C0BB
:10130000F0938103E0938003F90171836083B8CF88
:101310008D919C91119712966C90129713967C90D8
:101320001397A815B90559F56C0142E0C40ED11CFC
:10133000CA14DB0420F1AC014A195B09DA011296E8
:10134000159780F06282738251834083D9016D9337
:101350007C93E114F10471F0D7011396FC93EE93A2
:1013600012978ECF22968C0F9D1FF9019183808357
:10137000F301EFCFF0938303E093820381CF48160C
:10138000590608F42C017D01D3019ACFCB010E94AC
:10139000D2077C01009749F0AE01B8010E94D8093C
:1013A000C8010E946E0887016BCF10E000E068CF93
:1013B000FB01DC0102C001900D9241505040D8F772
:1013C0000895FB01DC018D91019080190110D9F382
:1013D000990B0895FB01DC0101900D920020E1F7CB
:1013E0000895FB01DC014150504030F08D91019097
:1013F000801919F40020B9F7881B990B089511E0A2
:10140000CAE2D1E000E006C0802FFE010E94CA07B8
:101410002196011DCB32D10780E00807A9F7F89487
:02142000FFCFFC
:101422000000840380000B00FFFF0C00FFFF0D0093
:10143200FFFF060007000800090000000000D502B7
:101442003F026C0222039D027B028F020D0A006999
:101452006E697469616C697A6564212100436F6DFC
:101462006D616E642072656365697665643A0072C7
:10147200656C61793A6F6E0072656C61793A6F667C
:1014820066006D6F746F7200496E76616C696420DC
:101492006D6F746F72206E756D6265722E00496E8B
:1014A20076616C6964206D6F746F7220636F6D6D0D
:1014B200616E642E00726573657400556E6B6E6F9B
:1014C200776E20636F6D6D616E642072656365690E
:1014D2007665642E00556E6B6E6F776E2073746145
:1014E20074652C20726573657474696E672E2E2E76
:0214F2000000F8
:00000001FF
